:0300000002139850
:0C139800787FE4F6D8FD7581210213DF98
:10160E002D2D2D2D2D2D2D2D2D2D2D2D2D2D2D2DFC
:10161E002D2D2D2D2D2D2D2D2D2D2D2D0D0A002D5C
:10162E002D2D2D2D2D2D2D6E74632E5365745F541F
:10163E003A2025662D2D2D2D2D2D2D2D0D0A002D0B
:10164E002D2D6E74632E4E6F775F543A2025332EF8
:10165E003166202D2D206E74632E5365745F543ABF
:0D166E002025332E3166202D2D2D0D0A0074
:1017D400FF1206CD7802E2FC08E2FD08E2FE08E210
:1017E400FF227806E2FC08E2FD08E2FE08E222C3DA
:0A17F4007815E2940318E294002235
:10100000121988121AB5D2001219F8121A35121ACA
:10101000791219507F647E001219E2120026121014
:10102000F17BFF7A16792D1217D878A81206CD1207
:1010300008851210F17F647E001219E21215201249
:1010400017F35009780CE260047802801C1217F341
:101050004024780CE2601F7878E2701A7490F212E3
:101060000C9178061206CD78061217DA1203BB78B7
:1010700054EEF208EFF2C37810E2940B18E29400F9
:10108000500C780CE26007E408F208F280AE78A415
:10109000E2FCE41203877802E2FB08E2F908E2FAD4
:1010A00008E2CBF812030460131217D81203BB78BE
:1010B000A4EFF21217D81203BB12199F1217E67889
:1010C0007A1217D4787E1206CD1212C27884E2FF0B
:1010D00008E2780DCFF208EFF27BFF7A16794D1215
:1010E00017E678A81217D478AC1206CD120885013D
:0110F0003CC3
:0A10F1007BFF7A16790E12088522A3
:10198800E4F592F591F5B2F5B1780CF2780FF2081A
:07199800F2789C7464F22256
:03001300021424B0
:10142400C0E0C0F0C083C08263A201C083C082C098
:10143400D075D01878207401F2087404F2780DE2A3
:10144400FE08E2FF781AEEF2FE08EFF2FFFDAC1E92
:10145400E41203827B667A6679A6783F12015E788D
:10146400161206CDE4FFFE7D807C407816E2FB0870
:10147400E2F908E2FA08E2CBF812006D1203BB7835
:101484001EEEF208EFF2781CE4F2087402F2D0D0F7
:10149400D082D08363A201D082D083D0F0D0E03256
:10182E00781EE2FE08E2FF08E2FC08E2FDC39FEC30
:10183E009E5010781CE2FE08E2FFED9FEC9E4003E6
:06184E00C2B422D2B42254
:03000B00020009E7
:0100090032C4
:0300030002000AEE
:01000A0032C3
:071AB500D288D2A8D2AF22B3
:1019F800438901D28A300006D2AAD2A98004C2AA99
:051A0800C2A9D2AF22CB
:1016E3007822EEF208EFF218E2F5C308E2F5C4221D
:1016F30078AFE22401F218E23400F222E22FFF185D
:10170300E23EFED3EF9400EE9402227BFEE4F20865
:101713007402F27F067E0022FFE2FC08E2FDC32290
:1017230078AEE2FE08E2FFC3EE94022278ACE2FE5A
:0F17330008E2FF78A8E22F2275C65A75C6A522D4
:1017420078A9EBF208EAF208E9F278A7EEF208EFDC
:01175200F2A4
:1017530078AD1216FF40037F0022E478AEF208F260
:1017630078ACE2FE08E20812171B9FEC9E502B7820
:10177300A8E22DFF18E23CFE1219B678A9E2FB0895
:10178300E2FA08E2F978AEE2FC08E2F5828C83EF34
:0C17930012063678AF1216F580C67F01F2
:01179F002227
:1010FB0078A9EBF208EAF208E9F278A7EEF208EF2A
:01110B00F2F1
:10110C0078AD1216FF40037F00227F007E02121181
:10111C00E0121723501A1219B678B0EFF2FD18E24C
:10112C002400FF18E23402FE121A0D1216F380E1AD
:10113C00E4FFFE1211E078A7E2FE08E278AE121787
:10114C001B9FEC9E5009E42DFFEC1211BF80E77839
:10115C00A7E2FF08E278AECFF208EFF212172FFFEA
:10116C0018E23EFEC378AFE29F18E29E5029E2FEE1
:10117C0008E2FF78A712171CEF9DFDEE9CFC08E21D
:10118C00FB08E2FA08E2F98D828C831205F7FD1256
:10119C001A0D1216F380C512172F79AFF318E23E11
:1011AC0019F31217235009E42FFFEE1211BF80F22E
:0211BC007F01B1
:1011BE00223402FE1219B678B0EFF2FD78AEE2FEDE
:1011CE0008E2FF121A0D78AFE22401F218E23400A1
:0C11DE00F222121A69E478AEF208F22244
:1019B600E4F5C275C78275C5011216E312173B001E
:0619C600121A88AFC222D4
:101A0D0075C78275C5021216E3AF058FC212173B5B
:041A1D0000021A8821
:101A690075C78275C5031216E312173B00021A885F
:0C1A8800E4F5C7F5C5F5C6F5C3F5C422AA
:04199F00AD07AC06DE
:1019A300EC78A5F2EF08F27A0079A578AC12170E5D
:0319B3000210FB24
:1019CC007A0079A578AC12170E12174278A5E2FEB0
:0519DC0008E2FDEDFF33
:0119E10022E3
:10192E00813B00813900815100813C00813A008168
:05193E005200812400AD
:0C1A9400E204F2E2C394147480948022F7
:1018E9007851121A9740037F0022783BE2243DF891
:1018F900EFF2783B121A944002E4F27851E204F2D2
:031909007F012239
:101854007851E27002FF22C2AC7839E2243DF8E20A
:101864001206247839121A944002E4F27851E214F0
:06187400F2D2AC7F01225C
:101800007852121A9740037F0022C2AC783CE2243F
:1018100025F8EFF2783C121A944002E4F27852E292
:0E18200004F27824E27002D299D2AC7F012249
:10190C007852E27002FF22783AE22425F8E21206BD
:10191C0024783A121A944002E4F27852E214F27FDC
:02192C00012296
:0D001600AE07AF06121800EF60F8AF06222B
:101A47007BFE7A0079A5121854EF60F478A5E2FFBF
:011A5700226C
:0B1AA000AE07AF06121800EF60F8223E
:1017A00078A5EBF208EAF208E9F278A5E2FB08E294
:1017B000FA08E2F91205DE601A78A5E2FB0808E2F1
:1017C000F92401F218E2FA3400F21205DEFF121ACF
:0417D000A080D722FC
:101A58007BFE7A0079A5121854EF60F478A5E2FFAE
:011A6800225B
:0300060002185489
:10195000759850438E01438E0475D7E075D6FE43CB
:0F1960008E10D2ACD29CC29FD29EC2990218A008
:0300230002167B47
:10167B00C0E0C083C08263A201C083C082C0D075AA
:0C168B00D000C000C001C002C003C007B6
:1016970030980CC29878BCE599F2E2FF1218E9304D
:1016A7009920C2997BFE7A0079BC12190CEF64016C
:1016B700700C78BCE2F59978247401F280047824E0
:0216C700E4F24B
:1016C900D007D003D002D001D000D0D0D082D083AF
:0A16D90063A201D082D083D0E0327A
:1018A000E4FF6020120016121A47E4FF121AA07B10
:1018B000007A0079001217A0121A587B007A00797A
:0418C000001200060C
:0118C4002201
:0A1AAB003F065B4F666D7D077F6FFD
:10196F00D2B57C037DE87854E2FE08E2FF02066AF6
:09197F00CFCDCFCECCCE02066A1A
:10159C0078BD7C007DFE7BFF7A1A79AB7E007F0ADA
:1015AC001207FD7853E2FB24FE601414602B240216
:1015BC00703BC2B7D2B612196F7E007F648012D214
:1015CC00B7C2B612196F7E007F6412197F7E007F3E
:1015DC000A12197F74BD2F8010D2B7D2B6C2B57C57
:1015EC00007D0A12197574BD2DF8E2F590EBC394C9
:1015FC00047480948050067853E204F222E4785309
:01160C00F2EB
:01160D0022BA
:1019E200EF4E60117D0B7C9FDCFEDDFCEF1F700172
:0519F2001E144E70EF11
:0119F70022CD
:100E08000033003400370039003C003F0042004501
:100E18000049004D005000540059005D0061006613
:100E2800006A006F00740079007E00840089008FDA
:100E38000095009B00A100A800AF00B500BD00C44C
:100E480000CB00D300DB00E300EB00F300FB010460
:100E5800010D0115011E0127013001390142014B25
:100E68000154015D01660167016B0172017B018517
:100E78000190019C01A901B601C201CF01DC01E882
:100E880001F401FF020A0215021F02290233023C83
:100E98000245024E0257026002680271027902821C
:100EA800028A0292029A02A202AA02B102B902C1FD
:100EB80002C802D002D702DE02E502EC02F302FA0F
:100EC80003010308030F0316031D0320032403284B
:100ED800032D03310336033B03410346034B034F02
:100EE80003540358035D036103650368036C036FD0
:100EF800037203760378037B037E038103830386EF
:100F08000389038B038E0391039303960399039B31
:100F1800039E03A103A303A603A803AB03AD03B079
:0E0F280003B203B403B603B703B903BA03BAA6
:1014A400E4FFFE78A5E2FB08E2F908E2FA08E2CBE1
:1014B400F822EF25E02458F8E2FC08E2FDEF25E0ED
:1014C4002456F8ECF208EDF278A9E22278A5E2FCC1
:1014D40008E2FD08E2FE08E2FF2275F002A42406F9
:1014E400F582E5F0340EF583E4932278A9E2FFC394
:1014F40094107480948022E4120382A804A905AA9B
:1015040006AB0722A42408F582E5F0340EF5832205
:0C1514007C007D0A120658AC06AD0722D0
:0F1A7900759D80E4F5BDF5BE75BCE07879F2226D
:10187A00E4F5BDF5BEEF44E8F5BC00000000E5BCA8
:10188A0030E4FB53BCEFAFBDEF75F004A4FFAEF03C
:05189A00ADBEEF4DFFA3
:01189F002226
:100C910078A51206D900000000E478AAF208F27FD4
:100CA1000712187A7876EEF208EFF27879E204F218
:100CB1001214F35018E478A9F21214EF5007121429
:100CC100B604F280F47876E2FC08E2803A7879742E
:100CD10010F2E478A9F21214EF501C1214B625E0B8
:100CE1002456F8E2FE08E2FF78ABE22FF218E23E6A
:100CF100F218E204F280DF79AAE3C4F854F0C8687C
:100D0100FC09E3C4540F48FDE412038278A51206DE
:100D1100CDE478A9F278A9E275F002121508E493FE
:100D2100FC740193FDE41203821214A71203046000
:100D310009400778A9E204F280DB7D207C4112148E
:100D4100A412015EC004C005C006C00778A9E21262
:100D510014DEFE740193FF1215141214FBD007D098
:100D610006D005D004120069C004C005C006C00742
:100D710078A9E2FF1214DEFC740193FD75F002EF15
:100D8100121508C37401939DFDE4939CFC1214FB9E
:100D9100D007D006D005D004120267C004C005C038
:100DA10006C00778A9E2FF7E00121514EC12038237
:100DB100D003D002D001D00012006D78A51206CD6B
:100DC1007DC87C431214A412030478A56011400F5E
:100DD1001214D2E4FBFA79C878C312006D800D12A7
:100DE10014A9E4FFFE7DCD7C4312006978A51206AB
:100DF100CD1214D0E4FBFA7920784112026778A56C
:060E01001206CD1214D010
:010E070022C8
:1018C500E2FB08E2F908E2FA08E2CBF822E2FC08BA
:1018D500E2FD08E2FE08E2FF22E2FF08E208CFF29D
:0418E50008EFF222F4
:100026001219CCAC06AD07E412038278021206CD93
:1000360078021218D2787E1206CD7886E4F2087419
:10004600DCF2081206D940A00000788C1206D940CE
:0D00560080000078901206D9404000002282
:1012C200787A1218C5C000787E1218D2D0001200A7
:1012D200691203BB7894EEF208EFF208E2FC08E22E
:1012E200FDC3EF9DFDEE9CFC12038278881218C5A7
:1012F20012015EC004C005C006C0077894E2FC0873
:10130200E2FDEC120382788C1218C512015ED00342
:10131200D002D001D00012006DC004C005C006C0CA
:10132200077897E225E0FF18E233FEC318E29FFF39
:1013320018E29EFE7899E22FFD18E23EFC1203822B
:1013420078901218C512015ED003D002D001D000ED
:1013520012006D1203BB7885E22FF218E23EF2789A
:10136200961218DE78941218DE7884E2FE08E2FF04
:10137200D39400EE648094805006E418F208F222BE
:101382007886E2FC08E2FDD3EF9DEE9C400778846C
:05139200ECF208EDF291
:011397002233
:03194300819C0084
:101A2100E22401F218E23400F222E224FFF218E289
:041A310034FFF2226A
:030063000211EA9D
:1011EA00C0E0C0F0C083C08263A201C083C082C0D5
:1011FA00D075D000C000C001C002C003C004C00541
:10120A00C006C007D37821E2940018E29400400493
:10121A0008121A2B12182E789CE214F2E2707774D4
:10122A0064F212159C7878E2D3940074809480401A
:10123A0003E214F27801121A21D308E294E818E2C0
:10124A0094034045E4F208F27815E2940818E2940F
:10125A0000500408121A217810121A21D308E294B5
:10126A000F18E294004004E4F208F27812E2FE0851
:10127A00E2FFD39400EE9400400FEF64014E700435
:10128A00D2AAD2A97813121A2B789DE214F2E2702C
:10129A0005740AF2D209D007D006D005D004D003CB
:1012AA00D002D001D000D0D0D082D08363A201D0A6
:0812BA0082D083D0F0D0E032B5
:101A3500438E0475D79175D6FF438E1043AF04D2FC
:021A4500AF22CE
:09194600819F0081A00081A10035
:100FC600C2AAC2A97812E4F2087404F2E408F2088C
:100FD600F27802E2FC08E2FD08E2FE08E2FFE4FB2A
:100FE600FA7980783F22E4FFFE7802E2FB08E2F914
:0A0FF60008E2FA08E2CBF802030457
:100F3600E4FFFE20B2010F20CC04EF4402FF20CDD7
:100F460004EF4404FFEF6056789FE26F704A08E2B0
:100F560004F2E2FDC3945874809482501278A2E29F
:100F6600FC131354017008EC4402F2789EEFF2C3AE
:100F7600ED945874809482401F78A2E24404F218DB
:100F8600E2FD04F2ED64027006EF4480FE8004EF99
:100F96004440FE78A074F4F2789FEFF2801F78A2A6
:100FA600E230E10720E204789EE2FE78A2E254FDF8
:0F0FB600F254FBF2E478A0F208F2789FF2AF0653
:010FC5002209
:10152000300978C209120F3678A3EFF224FE602446
:1015300024FE604324037063780CE26011E4F20837
:10154000F20874DCF27854E4F20874DCF222780CCD
:101550007401F222780CE26042120FC61200697820
:10156000021206CD7D807C3F120FEC502E780212C5
:1015700006D93F80000022780CE2601F120FC612CD
:10158000006D78021206CD7DC87C42120FEC600B14
:0C159000400978021206D942C80000226F
:10006600020427E86480F8E933E83360110460F09D
:10007600ED33EC337009E8FCE9FDEAFEEBFF220400
:1000860060DED3EB9FEA9EE99DE8C2E78CF0C2F7FB
:1000960095F0400CE8CCF8E9CDF9EACEFAEBCFFBC7
:1000A6001203F285D0F05804700320D5B3E804702B
:1000B600075002B2D502043192D5EC0460F7E4CCC5
:1000C600C0E0C398F8603B94186008400DD0E0FB90
:1000D600020409E4FBFAC9FC8028E830E406E4C916
:1000E600FBE4CAFCE830E305E4C9CACBFCE85407E4
:1000F6006010F8C3E913F9EA13FAEB13FBEC13FCEF
:10010600D8F130F52FC3E49CFCEF9BFFEE9AFEED91
:1001160099FDD0E0FBEF4E4D4C701222DB0302043A
:100126002EEC2CFCEF33FFEE33FEED33FDED30E726
:10013600EB020409EF2BFFEE3AFEED39FDD0E0FBB2
:1001460050130BBB0003020431ED13FDEE13FEEF5B
:0801560013FFEC13FC02040985
:10015E00EC4D6011E8497017ED33EC3304600DE49B
:10016E00FCFFFEFD22E933E8330470F80204271287
:10017E0003F258046009E4CC248150062850090289
:10018E00043128400302042EC0E0EB4A7044B980CB
:10019E0006D0E0FB02041DEF4E701CBD8008EBFF85
:1001AE00EAFEE9FD80EBE98DF0A4FEE5F0020247E0
:1001BE00E9CDF9EAFEEBFFEF89F0A4FCE5F0CE897C
:1001CE00F0A42EFFE435F0CD89F0A42DFEE435F039
:1001DE008067EF4E7005BD80D780C3EF8BF0A4AC67
:1001EE00F0EE8BF0A42CFCE435F0F8EF8AF0A42CA2
:1001FE00E5F038FCE433CB8DF0A42CFCE5F03BF8B5
:10020E00EE8AF0A42CFCE5F038F8E433CF89F0A4A4
:10021E002CFCE5F038CF3400CE89F0A42FFFE5F0AA
:10022E003EFEE433C98DF0A42EFEE5F039CD8AF002
:10023E00A42FFFE5F03EFEE43DFD33D0E0FB50077A
:10024E000BBB000F020431EC2CFCEF33FFEE33FE40
:06025E00ED33FD0204096E
:10026400020431EC5D046005E859047003020427BC
:100274001203F2580460F6EC4860F2EC7004FDFEE0
:10028400FF22C860DB2481C85009C398600250066D
:1002940002042E9850CAF582E9294B4A7005AB82B4
:1002A40002041D75F0007C1A7880C3EF9BEE9AED72
:1002B40099400DC3EF9BFFEE9AFEED99FDE842F0E5
:1002C400DC23ACF0D0E0FFD0E0FED0E0FDAB822038
:1002D400E7101BEB60BAEC2CFCEF33FFEE33FEEDC2
:1002E40033FD020409E803F830E705C0F075F000B7
:1002F400EF2FFFEE33FEED33FD40B830E7C280AAA6
:1003040074F8CC6480CCC86480C8F58204604FC3A0
:10031400EB9FF5F0EA9E42F0E99D42F0E89C45F03F
:10032400603C501DE5825FFFE582D313CB5BCBF4C9
:100334002B5582FB50280ABA002409B900200880F2
:100344001DE5825BFBE582D313CF5FCFF4C3132F8C
:100354005582FF50090EBE00050DBD00010CC3EB14
:100364009FF5F0EA9E42F0E99D42F0E89C45F0607A
:0903740007CC4820E701B3EC229C
:10037D0075F020800E75F010800575F0087D007EFB
:10038D00007F003392D530D5031206BFEC334010F9
:10039D00EF33FFEE33FEED33FDEC33FCD5F0ED2204
:0E03AD00E5F0247EA2D513CC92E7CDCEFF2240
:1003BB00EDD2E7CD33EC3392D524814006E4FFFE3A
:1003CB00FDFC22FCE4CFCECDCC24E0501174FF8099
:1003DB00EDC3CC13CCCD13CDCE13CECF13CF047036
:0703EB00F030D5DE0206BF71
:10082300E50824A8F8E205082278A530070278A88D
:10083300E475F0011206F20205DE2000EB7F2ED2F2
:10084300008018EF540F2490D43440D4FF30040BAD
:10085300EF24BFB41A0050032461FFE509600215B9
:1008630009050CE50C7002050B30070D78A5E4753E
:10087300F0011206F2EF0206240200167403D207F7
:100883008003E4C207F50878A5120702E4F509F529
:100893000BF50CE50960077F2012085E80F5750AE9
:1008A300FFC201C200C202C203C205C206C20812CD
:1008B300082CFF700D3007057F0012086FAF0CAED8
:1008C3000B22B4255FC2D5C20412082CFF24D0B476
:1008D3000A00501A75F00A780930D50508B6FF01E9
:1008E30006C6A426F620D5047002D20380D924CFED
:1008F300B41A00EF5004C2E5D204020B5BD20180AC
:10090300C6D20080C0D20280BCD2D580BAD20580C4
:10091300B47F2012085E2002077401B5090040F17C
:10092300120823FF12085E020896D208D2068095A9
:10093300120823FB120823FA120823F94A4B700604
:1009430079527A0C7BFF20022EE509602A7E008E05
:10095300827583001205F760060EEE650A70F0C219
:10096300D5EBC0E0EAC0E0E9C0E0EE120BBBD0E09B
:10097300F9D0E0FAD0E0FB1205DEFF60AAEBC0E09D
:10098300EAC0E0E9C0E012085ED0E02401F9D0E05B
:100993003400FAD0E0FBE50A0460DCD50AD980878D
:1009A300D20280A2120B9E60F7E50A7001041204C2
:1009B3003CA90A600DE50A600914F50A120C45EF1B
:1009C30060F3EA30E702F404C3995077EAF4250AA6
:1009D3000430E701E404F50A800D120B9E60C1EABE
:1009E300050A250A12043CEA78BBF230E701E42544
:1009F3000A04D50A0420050114120BBBE4C0E0125B
:100A03000C4578BBE2601320E70714F21208468016
:100A13002204F2D0E014C0E07F00120846E50A6029
:100A23000712083D150A800B30050312083DD0E07C
:100A3300020896D0E00480C5120B9E60A0E50A046C
:100A430012043C78BBEAF2E50A20050260010424A3
:0C0A530004120BBB74FF04C0E0120C4541
:100A5F00120846E50A200502600312083DD0E0B5F2
:100A6F000AE87F4512085078BBE27F2B30E7047FFE
:100A7F002DF404C0E012085ED0E075F00A84C0F0D7
:100A8F00120847D0E01208470208967910800279C1
:100A9F0008C206C2088008D2D5790A8004790AC232
:100AAF00D5E50A047002F50AE4FAFDFEFF120823E9
:100ABF00FC7B08200113120823FD7B1030000A1263
:100ACF000823FE120823FF7B20EC3382D592D550EA
:100ADF0013C3E43000069FFFE49EFEE42001039D54
:100AEF00FDE49CFCE4CBF8C201EC700CCFCECDCC76
:100AFF00E824F8F870F38017C3EF33FFEE33FEED01
:100B0F0033FDEC33FCEB33FB994002FB0FD8E9EBE1
:100B1F00300105F8D0E0C448B201C0E00AEC4D4EF8
:100B2F004F78207B0070C2EAB50A0040BCC0E012CB
:100B3F000BBDD0F0D0E0200104C4C0E0C4B201C0AE
:100B4F00F0120847D0F0D5F0EB02089612070B0908
:100B5F0033530A9A5809044C0900420A9E4F0AA6B9
:100B6F00440AA6490919430AAC5509DD460A3B4513
:100B7F0009A7470C725009082D090C2E092F2B09B4
:100B8F001023092D200C5B2A08C84800000927E50F
:100B9F000AB4FF03750A06120823FC120823FD127C
:100BAF000823FE120823FF78B402046B790AA2D53A
:100BBF00200314300509B910020404B9080104A276
:100BCF00D52006025001042002689202B509005098
:100BDF0034C0E07F203003197F30A2027206720505
:100BEF00500F120C14C202C206C205C2087F308019
:100BFF000F300503E9C0E012085E300503D0E0F9BD
:100C0F00D0E0B509CC3005177F30B9100C12085E53
:100C1F007F583004077F788003B9080312085E30CD
:100C2F0002057F2D02085E7F202008F87F2B20060B
:100C3F00F322920280CF7F00B40700500524B4F84E
:100C4F00E2FF22286E756C6C2900D2011208233046
:100C5F0001F8C201780930D50108F60208C82D50F5
:100C6F004349581208232403B405004001E4900CB3
:100C7F006D9312084F743A12084FD203750904028C
:020C8F000A9ABF
:1003F200E9D2E7C933E833F892D5EDD2E7CD33EC51
:0704020033FC5002B2D522C9
:10040900EC30E7100FBF000C0EBE00080DBD000454
:100419000BEB6014A2D5EB13FCED92E7FD2274FF00
:10042900FCFDFEFF22E480F8A2D574FF13FC7D8059
:03043900E480EF6D
:10043C00F920E72824F950037907E4F42402FB1887
:10044C00DBFDE224FB5014E9600DE4F218E204F247
:0F045C00B40A08E4F2D9F57401F20A22C2D522DB
:10046B00ED33EC3392D5FA602AB4FF33EDC2E77B60
:10047B00FF60067A047990E4227A04799920D504F6
:10048B007A047994224E614E002B494E46002D4939
:10049B004E4600E47A08F208DAFC7B00740722E887
:1004AB00C0E0ECC0E0EDC0E0EEC0E0EFC0E0EA750C
:1004BB00F010A4CAABF075F04DA42BFBE435F0FCA7
:1004CB00EA2410FAEB34C5FBEC34D9FCEDC2E7FFA0
:1004DB0075F056A4F42411C5F0F434C58FF0A42A9A
:1004EB00E5F03BE43CF220E71412059ED0E0FFD090
:1004FB00E0FED0E0FDD0E0FC1202678014F40412A1
:10050B00059ED0E0FFD0E0FED0E0FDD0E0FC120174
:10051B005ED0E0F8E2FAEDD2E7CD33EC332482FB88
:10052B00E4C3CF33CFCE33CECD33CD33DBF37B0729
:10053B0075F00A846004F2081B0AE5F0F2088FF0EC
:10054B00740AA4FFACF08EF0740AA42CFEACF0502D
:10055B00010C8DF0740AA42CFDE435F0F208DBDEFF
:03056B00740722F0
:10056E003F8000004120000042C80000447A000095
:10057E00461C400047C35000497424004B18968017
:10058E004CBEBC205A0E1BCA6753C21C749DC5AE0E
:10059E00FB60065407601C23231205CCEB54386015
:1005AE00091205B81205C712015EECF8EDF9EEFA64
:1005BE00EFCB22EB1205C780F1543803241C9005B3
:1005CE006EFE93FC0EEE93FD0EEE930ECE93FF2277
:1013A400021000E493A3F8E493A34003F68001F24F
:1013B40008DFF48029E493A3F85407240CC8C3334A
:1013C400C4540F4420C8834004F456800146F6DF19
:1013D400E4800B010204081020408090192EE47E62
:1013E400019360BCA3FF543F30E509541FFEE4930E
:1013F400A360010ECF54C025E060A840B8E493A3D5
:10140400FAE493A3F8E493A3C8C582C8CAC583CAFF
:10141400F0A3C8C582C8CAC583CADFE9DEE780BEB7
:01194F000097
:1005DE00BB010689828A83E0225002E722BBFE021B
:0905EE00E32289828A83E493224E
:1005F700BB010CE58229F582E5833AF583E02250B9
:1006070006E92582F8E622BBFE06E92582F8E22202
:0D061700E58229F582E5833AF583E493221C
:10062400BB010689828A83F0225002F722BBFE01B5
:02063400F322AF
:10063600F8BB010DE58229F582E5833AF583E8F0FA
:10064600225006E92582C8F622BBFE05E92582C8A6
:02065600F2228E
:10065800EF8DF0A4A8F0CF8CF0A428CE8DF0A42EB6
:02066800FE2270
:10066A00BC000BBE0029EF8DF084FFADF022E4CC74
:10067A00F875F008EF2FFFEE33FEEC33FCEE9DEC3D
:10068A00984005FCEE9DFE0FD5F0E9E4CEFD22ED83
:10069A00F8F5F0EE8420D21CFEADF075F008EF2FCD
:1006AA00FFED33FD4007985006D5F0F222C398FDBE
:0506BA000FD5F0EA225B
:0E06BF00C3E49FFFE49EFEE49DFDE49CFC224C
:0C06CD00ECF208EDF208EEF208EFF22269
:1006D900D083D082E493F208740193F208740293F0
:0906E900F208740393F274047327
:1006F200FAE2FB0808E2F925F0F218E2CA3AF2221D
:09070200EBF208EAF208E9F22228
:10070B00D083D082F8E4937012740193700DA3A37D
:10071B0093F8740193F5828883E473740293686091
:06072B00EFA3A3A380DF91
:10073100E709F608DFFA8046E709F208DFFA803EAA
:1007410088828C83E709F0A3DFFA8032E309F60897
:10075100DFFA8076E309F208DFFA806E88828C8303
:10076100E309F0A3DFFA806289828A83E0A3F608B5
:10077100DFFA805689828A83E0A3F208DFFA804A91
:1007810080D280FA80C680D4806580F2803180106A
:1007910080A680EA809A80A880DA80E280CA8031CF
:1007A10089828A8363A20188828C8363A201E49394
:1007B100A363A201F0A363A201DFF3DEF1800B8941
:1007C100828A83E493A3F608DFF9ECFAA9F0EDFB42
:1007D1002289828A8363A20188828C8363A201E0D9
:1007E100A363A201F0A363A201DFF4DEF280DB893F
:1007F100828A83E493A3F208DFF980CE88F0EF6068
:10080100010E4E60C588F0ED2402B4040050BBF522
:1008110082EB2402B4040050B123234582239007C4
:020821008173E1
:00000001FF
